{
  "_format": "hh-sol-artifact-1",
  "contractName": "NFT",
  "sourceName": "contracts/NFT.sol",
  "abi": [
    {
      "inputs": [],
      "stateMutability": "nonpayable",
      "type": "constructor"
    },
    {
      "anonymous": false,
      "inputs": [
        {
          "indexed": true,
          "internalType": "address",
          "name": "owner",
          "type": "address"
        },
        {
          "indexed": true,
          "internalType": "address",
          "name": "approved",
          "type": "address"
        },
        {
          "indexed": true,
          "internalType": "uint256",
          "name": "tokenId",
          "type": "uint256"
        }
      ],
      "name": "Approval",
      "type": "event"
    },
    {
      "anonymous": false,
      "inputs": [
        {
          "indexed": true,
          "internalType": "address",
          "name": "owner",
          "type": "address"
        },
        {
          "indexed": true,
          "internalType": "address",
          "name": "operator",
          "type": "address"
        },
        {
          "indexed": false,
          "internalType": "bool",
          "name": "approved",
          "type": "bool"
        }
      ],
      "name": "ApprovalForAll",
      "type": "event"
    },
    {
      "anonymous": false,
      "inputs": [
        {
          "indexed": true,
          "internalType": "address",
          "name": "from",
          "type": "address"
        },
        {
          "indexed": true,
          "internalType": "address",
          "name": "to",
          "type": "address"
        },
        {
          "indexed": true,
          "internalType": "uint256",
          "name": "tokenId",
          "type": "uint256"
        }
      ],
      "name": "Transfer",
      "type": "event"
    },
    {
      "inputs": [
        {
          "internalType": "address",
          "name": "to",
          "type": "address"
        },
        {
          "internalType": "uint256",
          "name": "tokenId",
          "type": "uint256"
        }
      ],
      "name": "approve",
      "outputs": [],
      "stateMutability": "nonpayable",
      "type": "function"
    },
    {
      "inputs": [
        {
          "internalType": "address",
          "name": "owner",
          "type": "address"
        }
      ],
      "name": "balanceOf",
      "outputs": [
        {
          "internalType": "uint256",
          "name": "",
          "type": "uint256"
        }
      ],
      "stateMutability": "view",
      "type": "function"
    },
    {
      "inputs": [
        {
          "internalType": "uint256",
          "name": "tokenId",
          "type": "uint256"
        }
      ],
      "name": "createMarketSale",
      "outputs": [],
      "stateMutability": "payable",
      "type": "function"
    },
    {
      "inputs": [
        {
          "internalType": "string",
          "name": "tokenURI",
          "type": "string"
        },
        {
          "internalType": "uint256",
          "name": "price",
          "type": "uint256"
        },
        {
          "internalType": "string",
          "name": "_name",
          "type": "string"
        },
        {
          "internalType": "string",
          "name": "_description",
          "type": "string"
        },
        {
          "internalType": "string",
          "name": "_image",
          "type": "string"
        }
      ],
      "name": "createToken",
      "outputs": [
        {
          "internalType": "uint256",
          "name": "",
          "type": "uint256"
        }
      ],
      "stateMutability": "payable",
      "type": "function"
    },
    {
      "inputs": [],
      "name": "fetchItemsListed",
      "outputs": [
        {
          "components": [
            {
              "internalType": "uint256",
              "name": "tokenId",
              "type": "uint256"
            },
            {
              "internalType": "address payable",
              "name": "seller",
              "type": "address"
            },
            {
              "internalType": "address payable",
              "name": "owner",
              "type": "address"
            },
            {
              "internalType": "uint256",
              "name": "price",
              "type": "uint256"
            },
            {
              "internalType": "bool",
              "name": "sold",
              "type": "bool"
            },
            {
              "internalType": "string",
              "name": "name",
              "type": "string"
            },
            {
              "internalType": "string",
              "name": "description",
              "type": "string"
            },
            {
              "internalType": "string",
              "name": "image",
              "type": "string"
            }
          ],
          "internalType": "struct NFT.MarketItem[]",
          "name": "",
          "type": "tuple[]"
        }
      ],
      "stateMutability": "view",
      "type": "function"
    },
    {
      "inputs": [],
      "name": "fetchMarketItems",
      "outputs": [
        {
          "components": [
            {
              "internalType": "uint256",
              "name": "tokenId",
              "type": "uint256"
            },
            {
              "internalType": "address payable",
              "name": "seller",
              "type": "address"
            },
            {
              "internalType": "address payable",
              "name": "owner",
              "type": "address"
            },
            {
              "internalType": "uint256",
              "name": "price",
              "type": "uint256"
            },
            {
              "internalType": "bool",
              "name": "sold",
              "type": "bool"
            },
            {
              "internalType": "string",
              "name": "name",
              "type": "string"
            },
            {
              "internalType": "string",
              "name": "description",
              "type": "string"
            },
            {
              "internalType": "string",
              "name": "image",
              "type": "string"
            }
          ],
          "internalType": "struct NFT.MarketItem[]",
          "name": "",
          "type": "tuple[]"
        }
      ],
      "stateMutability": "view",
      "type": "function"
    },
    {
      "inputs": [],
      "name": "fetchMyNFTs",
      "outputs": [
        {
          "components": [
            {
              "internalType": "uint256",
              "name": "tokenId",
              "type": "uint256"
            },
            {
              "internalType": "address payable",
              "name": "seller",
              "type": "address"
            },
            {
              "internalType": "address payable",
              "name": "owner",
              "type": "address"
            },
            {
              "internalType": "uint256",
              "name": "price",
              "type": "uint256"
            },
            {
              "internalType": "bool",
              "name": "sold",
              "type": "bool"
            },
            {
              "internalType": "string",
              "name": "name",
              "type": "string"
            },
            {
              "internalType": "string",
              "name": "description",
              "type": "string"
            },
            {
              "internalType": "string",
              "name": "image",
              "type": "string"
            }
          ],
          "internalType": "struct NFT.MarketItem[]",
          "name": "",
          "type": "tuple[]"
        }
      ],
      "stateMutability": "view",
      "type": "function"
    },
    {
      "inputs": [
        {
          "internalType": "uint256",
          "name": "tokenId",
          "type": "uint256"
        }
      ],
      "name": "getApproved",
      "outputs": [
        {
          "internalType": "address",
          "name": "",
          "type": "address"
        }
      ],
      "stateMutability": "view",
      "type": "function"
    },
    {
      "inputs": [],
      "name": "getEthUsd",
      "outputs": [
        {
          "internalType": "uint256",
          "name": "",
          "type": "uint256"
        }
      ],
      "stateMutability": "view",
      "type": "function"
    },
    {
      "inputs": [],
      "name": "getListingPrice",
      "outputs": [
        {
          "internalType": "uint256",
          "name": "",
          "type": "uint256"
        }
      ],
      "stateMutability": "view",
      "type": "function"
    },
    {
      "inputs": [
        {
          "internalType": "address",
          "name": "owner",
          "type": "address"
        },
        {
          "internalType": "address",
          "name": "operator",
          "type": "address"
        }
      ],
      "name": "isApprovedForAll",
      "outputs": [
        {
          "internalType": "bool",
          "name": "",
          "type": "bool"
        }
      ],
      "stateMutability": "view",
      "type": "function"
    },
    {
      "inputs": [],
      "name": "name",
      "outputs": [
        {
          "internalType": "string",
          "name": "",
          "type": "string"
        }
      ],
      "stateMutability": "view",
      "type": "function"
    },
    {
      "inputs": [
        {
          "internalType": "uint256",
          "name": "tokenId",
          "type": "uint256"
        }
      ],
      "name": "ownerOf",
      "outputs": [
        {
          "internalType": "address",
          "name": "",
          "type": "address"
        }
      ],
      "stateMutability": "view",
      "type": "function"
    },
    {
      "inputs": [
        {
          "internalType": "uint256",
          "name": "tokenId",
          "type": "uint256"
        },
        {
          "internalType": "uint256",
          "name": "price",
          "type": "uint256"
        }
      ],
      "name": "resellToken",
      "outputs": [],
      "stateMutability": "payable",
      "type": "function"
    },
    {
      "inputs": [
        {
          "internalType": "address",
          "name": "from",
          "type": "address"
        },
        {
          "internalType": "address",
          "name": "to",
          "type": "address"
        },
        {
          "internalType": "uint256",
          "name": "tokenId",
          "type": "uint256"
        }
      ],
      "name": "safeTransferFrom",
      "outputs": [],
      "stateMutability": "nonpayable",
      "type": "function"
    },
    {
      "inputs": [
        {
          "internalType": "address",
          "name": "from",
          "type": "address"
        },
        {
          "internalType": "address",
          "name": "to",
          "type": "address"
        },
        {
          "internalType": "uint256",
          "name": "tokenId",
          "type": "uint256"
        },
        {
          "internalType": "bytes",
          "name": "data",
          "type": "bytes"
        }
      ],
      "name": "safeTransferFrom",
      "outputs": [],
      "stateMutability": "nonpayable",
      "type": "function"
    },
    {
      "inputs": [
        {
          "internalType": "address",
          "name": "operator",
          "type": "address"
        },
        {
          "internalType": "bool",
          "name": "approved",
          "type": "bool"
        }
      ],
      "name": "setApprovalForAll",
      "outputs": [],
      "stateMutability": "nonpayable",
      "type": "function"
    },
    {
      "inputs": [
        {
          "internalType": "bytes4",
          "name": "interfaceId",
          "type": "bytes4"
        }
      ],
      "name": "supportsInterface",
      "outputs": [
        {
          "internalType": "bool",
          "name": "",
          "type": "bool"
        }
      ],
      "stateMutability": "view",
      "type": "function"
    },
    {
      "inputs": [],
      "name": "symbol",
      "outputs": [
        {
          "internalType": "string",
          "name": "",
          "type": "string"
        }
      ],
      "stateMutability": "view",
      "type": "function"
    },
    {
      "inputs": [
        {
          "internalType": "uint256",
          "name": "tokenId",
          "type": "uint256"
        }
      ],
      "name": "tokenURI",
      "outputs": [
        {
          "internalType": "string",
          "name": "",
          "type": "string"
        }
      ],
      "stateMutability": "view",
      "type": "function"
    },
    {
      "inputs": [
        {
          "internalType": "address",
          "name": "from",
          "type": "address"
        },
        {
          "internalType": "address",
          "name": "to",
          "type": "address"
        },
        {
          "internalType": "uint256",
          "name": "tokenId",
          "type": "uint256"
        }
      ],
      "name": "transferFrom",
      "outputs": [],
      "stateMutability": "nonpayable",
      "type": "function"
    },
    {
      "inputs": [
        {
          "internalType": "uint256",
          "name": "_listingPrice",
          "type": "uint256"
        }
      ],
      "name": "updateListingPrice",
      "outputs": [],
      "stateMutability": "payable",
      "type": "function"
    }
  ],
  "bytecode": "0x60806040526658d15e176280006009553480156200001c57600080fd5b50604080518082018252601081526f4d657461766572736520546f6b656e7360801b6020808301918252835180850190945260048452631351551560e21b9084015281519192916200007191600091620000c4565b50805162000087906001906020840190620000c4565b5050600a80546001600160a01b03199081163317909155600b8054909116737bac85a8a13a4bcd8abb3eb7d6b4d632c5a5767617905550620001a7565b828054620000d2906200016a565b90600052602060002090601f016020900481019282620000f6576000855562000141565b82601f106200011157805160ff191683800117855562000141565b8280016001018555821562000141579182015b828111156200014157825182559160200191906001019062000124565b506200014f92915062000153565b5090565b5b808211156200014f576000815560010162000154565b600181811c908216806200017f57607f821691505b60208210811415620001a157634e487b7160e01b600052602260045260246000fd5b50919050565b6128a380620001b76000396000f3fe6080604052600436106101055760003560e01c806301ffc9a71461010a57806306fdde031461013f578063081812fc14610161578063095ea7b3146101995780630f08efe0146101bb57806312e85585146101dd578063202e3740146101fc57806323b872dd1461021157806342842e0e1461023157806345f8fa80146102515780636352211e1461026657806370a082311461028657806395d89b41146102a65780639e0d2da8146102bb578063a22cb465146102ce578063ae677aa3146102ee578063b88d4fde14610301578063bb27e0ce14610321578063be9af53614610336578063c87b56dd14610349578063e219fc7514610369578063e985e9c51461037c575b600080fd5b34801561011657600080fd5b5061012a6101253660046120be565b61039c565b60405190151581526020015b60405180910390f35b34801561014b57600080fd5b506101546103ee565b6040516101369190612133565b34801561016d57600080fd5b5061018161017c366004612146565b610480565b6040516001600160a01b039091168152602001610136565b3480156101a557600080fd5b506101b96101b4366004612188565b6104a7565b005b3480156101c757600080fd5b506101d06105c2565b60405161013691906121b2565b3480156101e957600080fd5b506009545b604051908152602001610136565b34801561020857600080fd5b506101d06108f7565b34801561021d57600080fd5b506101b961022c36600461229e565b610c6a565b34801561023d57600080fd5b506101b961024c36600461229e565b610c9b565b34801561025d57600080fd5b506101d0610cb6565b34801561027257600080fd5b50610181610281366004612146565b611029565b34801561029257600080fd5b506101ee6102a13660046122da565b61105e565b3480156102b257600080fd5b506101546110e4565b6101ee6102c93660046123a0565b6110f3565b3480156102da57600080fd5b506101b96102e9366004612456565b61113b565b6101b96102fc366004612146565b61114a565b34801561030d57600080fd5b506101b961031c366004612492565b6111c2565b34801561032d57600080fd5b506101ee6111fa565b6101b9610344366004612146565b61128d565b34801561035557600080fd5b50610154610364366004612146565b6113f2565b6101b961037736600461250d565b611503565b34801561038857600080fd5b5061012a61039736600461252f565b6115fb565b60006001600160e01b031982166380ac58cd60e01b14806103cd57506001600160e01b03198216635b5e139f60e01b145b806103e857506301ffc9a760e01b6001600160e01b03198316145b92915050565b6060600080546103fd90612562565b80601f016020809104026020016040519081016040528092919081815260200182805461042990612562565b80156104765780601f1061044b57610100808354040283529160200191610476565b820191906000526020600020905b81548152906001019060200180831161045957829003601f168201915b5050505050905090565b600061048b82611629565b506000908152600460205260409020546001600160a01b031690565b60006104b282611029565b9050806001600160a01b0316836001600160a01b031614156105255760405162461bcd60e51b815260206004820152602160248201527f4552433732313a20617070726f76616c20746f2063757272656e74206f776e656044820152603960f91b60648201526084015b60405180910390fd5b336001600160a01b0382161480610541575061054181336115fb565b6105b35760405162461bcd60e51b815260206004820152603e60248201527f4552433732313a20617070726f76652063616c6c6572206973206e6f7420746f60448201527f6b656e206f776e6572206e6f7220617070726f76656420666f7220616c6c0000606482015260840161051c565b6105bd8383611651565b505050565b606060006105cf60075490565b905060006105dc60085490565b6007546105e991906125b3565b9050600080826001600160401b03811115610606576106066122f5565b60405190808252806020026020018201604052801561063f57816020015b61062c611fb6565b8152602001906001900390816106245790505b50905060005b848110156108ee5730600c600061065d8460016125ca565b81526020810191909152604001600020600201546001600160a01b031614156108dc57600061068d8260016125ca565b6000818152600c60209081526040918290208251610100810184528154815260018201546001600160a01b039081169382019390935260028201549092169282019290925260038201546060820152600482015460ff161515608082015260058201805493945091929091839160a08401919061070990612562565b80601f016020809104026020016040519081016040528092919081815260200182805461073590612562565b80156107825780601f1061075757610100808354040283529160200191610782565b820191906000526020600020905b81548152906001019060200180831161076557829003601f168201915b5050505050815260200160068201805461079b90612562565b80601f01602080910402602001604051908101604052809291908181526020018280546107c790612562565b80156108145780601f106107e957610100808354040283529160200191610814565b820191906000526020600020905b8154815290600101906020018083116107f757829003601f168201915b5050505050815260200160078201805461082d90612562565b80601f016020809104026020016040519081016040528092919081815260200182805461085990612562565b80156108a65780601f1061087b576101008083540402835291602001916108a6565b820191906000526020600020905b81548152906001019060200180831161088957829003601f168201915b5050505050815250508486815181106108c1576108c16125e2565b60209081029190910101526108d76001866125ca565b945050505b806108e6816125f8565b915050610645565b50949350505050565b6060600061090460075490565b905060008060005b838110156109675733600c60006109248460016125ca565b81526020810191909152604001600020600201546001600160a01b03161415610955576109526001846125ca565b92505b8061095f816125f8565b91505061090c565b506000826001600160401b03811115610982576109826122f5565b6040519080825280602002602001820160405280156109bb57816020015b6109a8611fb6565b8152602001906001900390816109a05790505b50905060005b848110156108ee5733600c60006109d98460016125ca565b81526020810191909152604001600020600201546001600160a01b03161415610c58576000610a098260016125ca565b6000818152600c60209081526040918290208251610100810184528154815260018201546001600160a01b039081169382019390935260028201549092169282019290925260038201546060820152600482015460ff161515608082015260058201805493945091929091839160a084019190610a8590612562565b80601f0160208091040260200160405190810160405280929190818152602001828054610ab190612562565b8015610afe5780601f10610ad357610100808354040283529160200191610afe565b820191906000526020600020905b815481529060010190602001808311610ae157829003601f168201915b50505050508152602001600682018054610b1790612562565b80601f0160208091040260200160405190810160405280929190818152602001828054610b4390612562565b8015610b905780601f10610b6557610100808354040283529160200191610b90565b820191906000526020600020905b815481529060010190602001808311610b7357829003601f168201915b50505050508152602001600782018054610ba990612562565b80601f0160208091040260200160405190810160405280929190818152602001828054610bd590612562565b8015610c225780601f10610bf757610100808354040283529160200191610c22565b820191906000526020600020905b815481529060010190602001808311610c0557829003601f168201915b505050505081525050848681518110610c3d57610c3d6125e2565b6020908102919091010152610c536001866125ca565b945050505b80610c62816125f8565b9150506109c1565b610c7433826116bf565b610c905760405162461bcd60e51b815260040161051c90612613565b6105bd83838361171d565b6105bd838383604051806020016040528060008152506111c2565b60606000610cc360075490565b905060008060005b83811015610d265733600c6000610ce38460016125ca565b81526020810191909152604001600020600101546001600160a01b03161415610d1457610d116001846125ca565b92505b80610d1e816125f8565b915050610ccb565b506000826001600160401b03811115610d4157610d416122f5565b604051908082528060200260200182016040528015610d7a57816020015b610d67611fb6565b815260200190600190039081610d5f5790505b50905060005b848110156108ee5733600c6000610d988460016125ca565b81526020810191909152604001600020600101546001600160a01b03161415611017576000610dc88260016125ca565b6000818152600c60209081526040918290208251610100810184528154815260018201546001600160a01b039081169382019390935260028201549092169282019290925260038201546060820152600482015460ff161515608082015260058201805493945091929091839160a084019190610e4490612562565b80601f0160208091040260200160405190810160405280929190818152602001828054610e7090612562565b8015610ebd5780601f10610e9257610100808354040283529160200191610ebd565b820191906000526020600020905b815481529060010190602001808311610ea057829003601f168201915b50505050508152602001600682018054610ed690612562565b80601f0160208091040260200160405190810160405280929190818152602001828054610f0290612562565b8015610f4f5780601f10610f2457610100808354040283529160200191610f4f565b820191906000526020600020905b815481529060010190602001808311610f3257829003601f168201915b50505050508152602001600782018054610f6890612562565b80601f0160208091040260200160405190810160405280929190818152602001828054610f9490612562565b8015610fe15780601f10610fb657610100808354040283529160200191610fe1565b820191906000526020600020905b815481529060010190602001808311610fc457829003601f168201915b505050505081525050848681518110610ffc57610ffc6125e2565b60209081029190910101526110126001866125ca565b945050505b80611021816125f8565b915050610d80565b6000818152600260205260408120546001600160a01b0316806103e85760405162461bcd60e51b815260040161051c90612661565b60006001600160a01b0382166110c85760405162461bcd60e51b815260206004820152602960248201527f4552433732313a2061646472657373207a65726f206973206e6f7420612076616044820152683634b21037bbb732b960b91b606482015260840161051c565b506001600160a01b031660009081526003602052604090205490565b6060600180546103fd90612562565b6000611103600780546001019055565b600061110e60075490565b905061111a33826118a7565b61112481886119c7565b6111318187878787611a52565b9695505050505050565b611146338383611bc8565b5050565b600a546001600160a01b031633146111bd5760405162461bcd60e51b815260206004820152603060248201527f4f6e6c79206d61726b6574706c616365206f776e65722063616e20757064617460448201526f32903634b9ba34b73390383934b1b29760811b606482015260840161051c565b600955565b6111cc33836116bf565b6111e85760405162461bcd60e51b815260040161051c90612613565b6111f484848484611c93565b50505050565b600080600b60009054906101000a90046001600160a01b03166001600160a01b031663feaf968c6040518163ffffffff1660e01b815260040160a06040518083038186803b15801561124b57600080fd5b505afa15801561125f573d6000803e3d6000fd5b505050506040513d601f19601f8201168201806040525081019061128391906126aa565b5050509150505090565b6000818152600c6020526040902060038101546001909101546001600160a01b0316348214611326576040805162461bcd60e51b81526020600482015260248101919091527f506c65617365207375626d6974207468652061736b696e67207072696365206960448201527f6e206f7264657220746f20636f6d706c65746520746865207075726368617365606482015260840161051c565b6000838152600c602052604090206002810180546001600160a01b0319908116331790915560048201805460ff1916600190811790915590910180549091169055611375600880546001019055565b61138030338561171d565b600a546009546040516001600160a01b039092169181156108fc0291906000818181858888f193505050501580156113bc573d6000803e3d6000fd5b506040516001600160a01b038216903480156108fc02916000818181858888f193505050501580156111f4573d6000803e3d6000fd5b60606113fd82611629565b6000828152600660205260408120805461141690612562565b80601f016020809104026020016040519081016040528092919081815260200182805461144290612562565b801561148f5780601f106114645761010080835404028352916020019161148f565b820191906000526020600020905b81548152906001019060200180831161147257829003601f168201915b5050505050905060006114ad60408051602081019091526000815290565b90508051600014156114c0575092915050565b8151156114f25780826040516020016114da9291906126fa565b60405160208183030381529060405292505050919050565b6114fb84611cc6565b949350505050565b6000828152600c60205260409020600201546001600160a01b0316331461157f5760405162461bcd60e51b815260206004820152602a60248201527f4f6e6c79206974656d206f776e65722063616e20706572666f726d20746869736044820152691037b832b930ba34b7b760b11b606482015260840161051c565b60095434146115a05760405162461bcd60e51b815260040161051c90612729565b6000828152600c6020526040902060048101805460ff19169055600381018290556001810180546001600160a01b0319908116331790915560029091018054909116301790556115f06008611d3a565b61114633308461171d565b6001600160a01b03918216600090815260056020908152604080832093909416825291909152205460ff1690565b61163281611d8f565b61164e5760405162461bcd60e51b815260040161051c90612661565b50565b600081815260046020526040902080546001600160a01b0319166001600160a01b038416908117909155819061168682611029565b6001600160a01b03167f8c5be1e5ebec7d5bd14f71427d1e84f3dd0314c0f7b2291e5b200ac8c7c3b92560405160405180910390a45050565b6000806116cb83611029565b9050806001600160a01b0316846001600160a01b031614806116f257506116f281856115fb565b806114fb5750836001600160a01b031661170b84610480565b6001600160a01b031614949350505050565b826001600160a01b031661173082611029565b6001600160a01b0316146117945760405162461bcd60e51b815260206004820152602560248201527f4552433732313a207472616e736665722066726f6d20696e636f72726563742060448201526437bbb732b960d91b606482015260840161051c565b6001600160a01b0382166117f65760405162461bcd60e51b8152602060048201526024808201527f4552433732313a207472616e7366657220746f20746865207a65726f206164646044820152637265737360e01b606482015260840161051c565b611801600082611651565b6001600160a01b038316600090815260036020526040812080546001929061182a9084906125b3565b90915550506001600160a01b03821660009081526003602052604081208054600192906118589084906125ca565b909155505060008181526002602052604080822080546001600160a01b0319166001600160a01b03868116918217909255915184939187169160008051602061284e83398151915291a4505050565b6001600160a01b0382166118fd5760405162461bcd60e51b815260206004820181905260248201527f4552433732313a206d696e7420746f20746865207a65726f2061646472657373604482015260640161051c565b61190681611d8f565b156119525760405162461bcd60e51b815260206004820152601c60248201527b115490cdcc8c4e881d1bdad95b88185b1c9958591e481b5a5b9d195960221b604482015260640161051c565b6001600160a01b038216600090815260036020526040812080546001929061197b9084906125ca565b909155505060008181526002602052604080822080546001600160a01b0319166001600160a01b038616908117909155905183929060008051602061284e833981519152908290a45050565b6119d082611d8f565b611a335760405162461bcd60e51b815260206004820152602e60248201527f45524337323155524953746f726167653a2055524920736574206f66206e6f6e60448201526d32bc34b9ba32b73a103a37b5b2b760911b606482015260840161051c565b600082815260066020908152604090912082516105bd9284019061200f565b60008411611aa15760405162461bcd60e51b815260206004820152601c60248201527b5072696365206d757374206265206174206c6561737420312077656960201b604482015260640161051c565b6009543414611ac25760405162461bcd60e51b815260040161051c90612729565b6040805161010081018252868152336020808301918252308385019081526060840189815260006080860181815260a087018b815260c088018b905260e088018a90528d8352600c8652979091208651815594516001860180546001600160a01b03199081166001600160a01b039384161790915593516002870180549095169116179092555160038401555160048301805460ff19169115159190911790559251805192939192611b7a926005850192019061200f565b5060c08201518051611b9691600684019160209091019061200f565b5060e08201518051611bb291600784019160209091019061200f565b50905050611bc133308761171d565b5050505050565b816001600160a01b0316836001600160a01b03161415611c265760405162461bcd60e51b815260206004820152601960248201527822a9219b99189d1030b8383937bb32903a379031b0b63632b960391b604482015260640161051c565b6001600160a01b03838116600081815260056020908152604080832094871680845294825291829020805460ff191686151590811790915591519182527f17307eab39ab6107e8899845ad3d59bd9653f200f220920489ca2b5937696c31910160405180910390a3505050565b611c9e84848461171d565b611caa84848484611dac565b6111f45760405162461bcd60e51b815260040161051c9061276d565b6060611cd182611629565b6000611ce860408051602081019091526000815290565b90506000815111611d085760405180602001604052806000815250611d33565b80611d1284611eb9565b604051602001611d239291906126fa565b6040516020818303038152906040525b9392505050565b805480611d875760405162461bcd60e51b815260206004820152601b60248201527a436f756e7465723a2064656372656d656e74206f766572666c6f7760281b604482015260640161051c565b600019019055565b6000908152600260205260409020546001600160a01b0316151590565b60006001600160a01b0384163b15611eae57604051630a85bd0160e11b81526001600160a01b0385169063150b7a0290611df09033908990889088906004016127bf565b602060405180830381600087803b158015611e0a57600080fd5b505af1925050508015611e3a575060408051601f3d908101601f19168201909252611e37918101906127f2565b60015b611e94573d808015611e68576040519150601f19603f3d011682016040523d82523d6000602084013e611e6d565b606091505b508051611e8c5760405162461bcd60e51b815260040161051c9061276d565b805181602001fd5b6001600160e01b031916630a85bd0160e11b1490506114fb565b506001949350505050565b606081611edd5750506040805180820190915260018152600360fc1b602082015290565b8160005b8115611f075780611ef1816125f8565b9150611f009050600a83612825565b9150611ee1565b6000816001600160401b03811115611f2157611f216122f5565b6040519080825280601f01601f191660200182016040528015611f4b576020820181803683370190505b5090505b84156114fb57611f606001836125b3565b9150611f6d600a86612839565b611f789060306125ca565b60f81b818381518110611f8d57611f8d6125e2565b60200101906001600160f81b031916908160001a905350611faf600a86612825565b9450611f4f565b6040518061010001604052806000815260200160006001600160a01b0316815260200160006001600160a01b03168152602001600081526020016000151581526020016060815260200160608152602001606081525090565b82805461201b90612562565b90600052602060002090601f01602090048101928261203d5760008555612083565b82601f1061205657805160ff1916838001178555612083565b82800160010185558215612083579182015b82811115612083578251825591602001919060010190612068565b5061208f929150612093565b5090565b5b8082111561208f5760008155600101612094565b6001600160e01b03198116811461164e57600080fd5b6000602082840312156120d057600080fd5b8135611d33816120a8565b60005b838110156120f65781810151838201526020016120de565b838111156111f45750506000910152565b6000815180845261211f8160208601602086016120db565b601f01601f19169290920160200192915050565b602081526000611d336020830184612107565b60006020828403121561215857600080fd5b5035919050565b6001600160a01b03169052565b80356001600160a01b038116811461218357600080fd5b919050565b6000806040838503121561219b57600080fd5b6121a48361216c565b946020939093013593505050565b60006020808301818452808551808352604092508286019150828160051b87010184880160005b8381101561229057603f19898403018552815161010081518552888201516122038a87018261215f565b50878201516122148987018261215f565b506060828101519086015260808083015115159086015260a08083015181870183905261224383880182612107565b9250505060c0808301518683038288015261225e8382612107565b9250505060e0808301519250858203818701525061227c8183612107565b9689019694505050908601906001016121d9565b509098975050505050505050565b6000806000606084860312156122b357600080fd5b6122bc8461216c565b92506122ca6020850161216c565b9150604084013590509250925092565b6000602082840312156122ec57600080fd5b611d338261216c565b634e487b7160e01b600052604160045260246000fd5b60006001600160401b0380841115612325576123256122f5565b604051601f8501601f19908116603f0116810190828211818310171561234d5761234d6122f5565b8160405280935085815286868601111561236657600080fd5b858560208301376000602087830101525050509392505050565b600082601f83011261239157600080fd5b611d338383356020850161230b565b600080600080600060a086880312156123b857600080fd5b85356001600160401b03808211156123cf57600080fd5b6123db89838a01612380565b96506020880135955060408801359150808211156123f857600080fd5b61240489838a01612380565b9450606088013591508082111561241a57600080fd5b61242689838a01612380565b9350608088013591508082111561243c57600080fd5b5061244988828901612380565b9150509295509295909350565b6000806040838503121561246957600080fd5b6124728361216c565b91506020830135801515811461248757600080fd5b809150509250929050565b600080600080608085870312156124a857600080fd5b6124b18561216c565b93506124bf6020860161216c565b92506040850135915060608501356001600160401b038111156124e157600080fd5b8501601f810187136124f257600080fd5b6125018782356020840161230b565b91505092959194509250565b6000806040838503121561252057600080fd5b50508035926020909101359150565b6000806040838503121561254257600080fd5b61254b8361216c565b91506125596020840161216c565b90509250929050565b600181811c9082168061257657607f821691505b6020821081141561259757634e487b7160e01b600052602260045260246000fd5b50919050565b634e487b7160e01b600052601160045260246000fd5b6000828210156125c5576125c561259d565b500390565b600082198211156125dd576125dd61259d565b500190565b634e487b7160e01b600052603260045260246000fd5b600060001982141561260c5761260c61259d565b5060010190565b6020808252602e908201527f4552433732313a2063616c6c6572206973206e6f7420746f6b656e206f776e6560408201526d1c881b9bdc88185c1c1c9bdd995960921b606082015260800190565b602080825260189082015277115490cdcc8c4e881a5b9d985b1a59081d1bdad95b88125160421b604082015260600190565b80516001600160501b038116811461218357600080fd5b600080600080600060a086880312156126c257600080fd5b6126cb86612693565b94506020860151935060408601519250606086015191506126ee60808701612693565b90509295509295909350565b6000835161270c8184602088016120db565b8351908301906127208183602088016120db565b01949350505050565b60208082526024908201527f5072696365206d75737420626520657175616c20746f206c697374696e6720706040820152637269636560e01b606082015260800190565b60208082526032908201527f4552433732313a207472616e7366657220746f206e6f6e20455243373231526560408201527131b2b4bb32b91034b6b83632b6b2b73a32b960711b606082015260800190565b6001600160a01b038581168252841660208201526040810183905260806060820181905260009061113190830184612107565b60006020828403121561280457600080fd5b8151611d33816120a8565b634e487b7160e01b600052601260045260246000fd5b6000826128345761283461280f565b500490565b6000826128485761284861280f565b50069056feddf252ad1be2c89b69c2b068fc378daa952ba7f163c4a11628f55a4df523b3efa264697066735822122063a74d2c8a186d2bf379005467821084a69c37e0ccc4a4e48c5a221aa8c7529064736f6c63430008090033",
  "linkReferences": {},
  "deployedLinkReferences": {}
}