{
  "_format": "hh-sol-artifact-1",
  "contractName": "MantleMultisig",
  "sourceName": "contracts/MantleMultisig.sol",
  "abi": [
    {
      "inputs": [],
      "stateMutability": "nonpayable",
      "type": "constructor"
    },
    {
      "anonymous": false,
      "inputs": [
        {
          "indexed": true,
          "internalType": "address",
          "name": "sender",
          "type": "address"
        },
        {
          "indexed": true,
          "internalType": "uint256",
          "name": "txIndex",
          "type": "uint256"
        }
      ],
      "name": "ConfirmTransaction",
      "type": "event"
    },
    {
      "anonymous": false,
      "inputs": [
        {
          "indexed": true,
          "internalType": "address",
          "name": "sender",
          "type": "address"
        },
        {
          "indexed": false,
          "internalType": "uint256",
          "name": "amount",
          "type": "uint256"
        }
      ],
      "name": "Deposit",
      "type": "event"
    },
    {
      "anonymous": false,
      "inputs": [
        {
          "indexed": true,
          "internalType": "address",
          "name": "sender",
          "type": "address"
        },
        {
          "indexed": true,
          "internalType": "uint256",
          "name": "txIndex",
          "type": "uint256"
        }
      ],
      "name": "ExecuteTransaction",
      "type": "event"
    },
    {
      "anonymous": false,
      "inputs": [
        {
          "indexed": true,
          "internalType": "address",
          "name": "sender",
          "type": "address"
        },
        {
          "indexed": true,
          "internalType": "address",
          "name": "destination",
          "type": "address"
        },
        {
          "indexed": false,
          "internalType": "uint256",
          "name": "value",
          "type": "uint256"
        },
        {
          "indexed": false,
          "internalType": "bytes",
          "name": "data",
          "type": "bytes"
        },
        {
          "indexed": false,
          "internalType": "uint256",
          "name": "nonce",
          "type": "uint256"
        },
        {
          "indexed": false,
          "internalType": "uint256",
          "name": "timelock",
          "type": "uint256"
        },
        {
          "indexed": false,
          "internalType": "address[]",
          "name": "authorizedUsers",
          "type": "address[]"
        }
      ],
      "name": "SubmitTransaction",
      "type": "event"
    },
    {
      "inputs": [
        {
          "internalType": "address",
          "name": "owner",
          "type": "address"
        }
      ],
      "name": "addOwner",
      "outputs": [],
      "stateMutability": "nonpayable",
      "type": "function"
    },
    {
      "inputs": [
        {
          "internalType": "uint256",
          "name": "txIndex",
          "type": "uint256"
        }
      ],
      "name": "confirmTransaction",
      "outputs": [],
      "stateMutability": "nonpayable",
      "type": "function"
    },
    {
      "inputs": [
        {
          "internalType": "uint256",
          "name": "",
          "type": "uint256"
        },
        {
          "internalType": "address",
          "name": "",
          "type": "address"
        }
      ],
      "name": "confirmed",
      "outputs": [
        {
          "internalType": "bool",
          "name": "",
          "type": "bool"
        }
      ],
      "stateMutability": "view",
      "type": "function"
    },
    {
      "inputs": [],
      "name": "deposit",
      "outputs": [],
      "stateMutability": "payable",
      "type": "function"
    },
    {
      "inputs": [
        {
          "internalType": "uint256",
          "name": "txIndex",
          "type": "uint256"
        }
      ],
      "name": "executeTransaction",
      "outputs": [],
      "stateMutability": "nonpayable",
      "type": "function"
    },
    {
      "inputs": [],
      "name": "getAllTransactions",
      "outputs": [
        {
          "components": [
            {
              "internalType": "address",
              "name": "destination",
              "type": "address"
            },
            {
              "internalType": "uint256",
              "name": "value",
              "type": "uint256"
            },
            {
              "internalType": "bytes",
              "name": "data",
              "type": "bytes"
            },
            {
              "internalType": "bool",
              "name": "executed",
              "type": "bool"
            },
            {
              "internalType": "uint256",
              "name": "timelock",
              "type": "uint256"
            },
            {
              "internalType": "address[]",
              "name": "authorizedUsers",
              "type": "address[]"
            }
          ],
          "internalType": "struct MantleMultisig.Transaction[]",
          "name": "",
          "type": "tuple[]"
        }
      ],
      "stateMutability": "view",
      "type": "function"
    },
    {
      "inputs": [],
      "name": "getOwners",
      "outputs": [
        {
          "internalType": "address[]",
          "name": "",
          "type": "address[]"
        }
      ],
      "stateMutability": "view",
      "type": "function"
    },
    {
      "inputs": [],
      "name": "getPendingTransactions",
      "outputs": [
        {
          "internalType": "uint256[]",
          "name": "",
          "type": "uint256[]"
        }
      ],
      "stateMutability": "view",
      "type": "function"
    },
    {
      "inputs": [
        {
          "internalType": "uint256",
          "name": "txIndex",
          "type": "uint256"
        }
      ],
      "name": "getTransaction",
      "outputs": [
        {
          "internalType": "address",
          "name": "destination",
          "type": "address"
        },
        {
          "internalType": "uint256",
          "name": "value",
          "type": "uint256"
        },
        {
          "internalType": "bytes",
          "name": "data",
          "type": "bytes"
        },
        {
          "internalType": "bool",
          "name": "executed",
          "type": "bool"
        },
        {
          "internalType": "uint256",
          "name": "timelock",
          "type": "uint256"
        },
        {
          "internalType": "address[]",
          "name": "authorizedUsers",
          "type": "address[]"
        }
      ],
      "stateMutability": "view",
      "type": "function"
    },
    {
      "inputs": [],
      "name": "getTransactionCount",
      "outputs": [
        {
          "internalType": "uint256",
          "name": "count",
          "type": "uint256"
        }
      ],
      "stateMutability": "view",
      "type": "function"
    },
    {
      "inputs": [
        {
          "internalType": "uint256",
          "name": "txIndex",
          "type": "uint256"
        },
        {
          "internalType": "address",
          "name": "owner",
          "type": "address"
        }
      ],
      "name": "isConfirmed",
      "outputs": [
        {
          "internalType": "bool",
          "name": "",
          "type": "bool"
        }
      ],
      "stateMutability": "view",
      "type": "function"
    },
    {
      "inputs": [
        {
          "internalType": "address",
          "name": "",
          "type": "address"
        }
      ],
      "name": "isOwner",
      "outputs": [
        {
          "internalType": "bool",
          "name": "",
          "type": "bool"
        }
      ],
      "stateMutability": "view",
      "type": "function"
    },
    {
      "inputs": [
        {
          "internalType": "uint256",
          "name": "",
          "type": "uint256"
        }
      ],
      "name": "owners",
      "outputs": [
        {
          "internalType": "address",
          "name": "",
          "type": "address"
        }
      ],
      "stateMutability": "view",
      "type": "function"
    },
    {
      "inputs": [
        {
          "internalType": "address",
          "name": "owner",
          "type": "address"
        }
      ],
      "name": "removeOwner",
      "outputs": [],
      "stateMutability": "nonpayable",
      "type": "function"
    },
    {
      "inputs": [],
      "name": "requiredSignatures",
      "outputs": [
        {
          "internalType": "uint256",
          "name": "",
          "type": "uint256"
        }
      ],
      "stateMutability": "view",
      "type": "function"
    },
    {
      "inputs": [
        {
          "internalType": "uint256",
          "name": "_requiredSignatures",
          "type": "uint256"
        }
      ],
      "name": "setRequiredSignatures",
      "outputs": [],
      "stateMutability": "nonpayable",
      "type": "function"
    },
    {
      "inputs": [
        {
          "internalType": "address",
          "name": "destination",
          "type": "address"
        },
        {
          "internalType": "uint256",
          "name": "value",
          "type": "uint256"
        },
        {
          "internalType": "bytes",
          "name": "data",
          "type": "bytes"
        },
        {
          "internalType": "uint256",
          "name": "timelock",
          "type": "uint256"
        },
        {
          "internalType": "address[]",
          "name": "authorizedUsers",
          "type": "address[]"
        }
      ],
      "name": "submitTransaction",
      "outputs": [
        {
          "internalType": "uint256",
          "name": "txIndex",
          "type": "uint256"
        }
      ],
      "stateMutability": "nonpayable",
      "type": "function"
    },
    {
      "inputs": [
        {
          "internalType": "uint256",
          "name": "",
          "type": "uint256"
        }
      ],
      "name": "transactions",
      "outputs": [
        {
          "internalType": "address",
          "name": "destination",
          "type": "address"
        },
        {
          "internalType": "uint256",
          "name": "value",
          "type": "uint256"
        },
        {
          "internalType": "bytes",
          "name": "data",
          "type": "bytes"
        },
        {
          "internalType": "bool",
          "name": "executed",
          "type": "bool"
        },
        {
          "internalType": "uint256",
          "name": "timelock",
          "type": "uint256"
        }
      ],
      "stateMutability": "view",
      "type": "function"
    },
    {
      "inputs": [
        {
          "internalType": "uint256",
          "name": "",
          "type": "uint256"
        }
      ],
      "name": "usedNonces",
      "outputs": [
        {
          "internalType": "bool",
          "name": "",
          "type": "bool"
        }
      ],
      "stateMutability": "view",
      "type": "function"
    }
  ],
  "bytecode": "0x608060405234801561001057600080fd5b506005805460018181019092557f036b6384b5eca791c62761152d0c79bb0604c104a5fb6f4eb0703f3154bb3db00180546001600160a01b031916339081179091556000908152602082905260409020805460ff19169091179055611e388061007a6000396000f3fe6080604052600436106100e45760003560e01c8063025e7c27146100e957806305a07aaf14610126578063173825d91461015457806327506f53146101765780632e7700f0146101985780632f54bf6e146101ad57806333ea3dc8146101ed5780636717e41c1461021f5780637065cb481461024f5780637d2b9cc01461026f57806380f59a651461028f5780638790c1de146102d55780638d068043146103105780639ace38c214610326578063a0e67e2b14610357578063c01a8c8414610379578063d0e30db014610399578063d11db83f146103a1578063ee22610b146103c3575b600080fd5b3480156100f557600080fd5b50610109610104366004611661565b6103e3565b6040516001600160a01b0390911681526020015b60405180910390f35b34801561013257600080fd5b50610146610141366004611762565b61040d565b60405190815260200161011d565b34801561016057600080fd5b5061017461016f36600461183c565b6106c8565b005b34801561018257600080fd5b5061018b6108cd565b60405161011d91906118ba565b3480156101a457600080fd5b50600454610146565b3480156101b957600080fd5b506101dd6101c836600461183c565b60016020526000908152604090205460ff1681565b604051901515815260200161011d565b3480156101f957600080fd5b5061020d610208366004611661565b610a65565b60405161011d969594939291906119e9565b34801561022b57600080fd5b506101dd61023a366004611661565b60026020526000908152604090205460ff1681565b34801561025b57600080fd5b5061017461026a36600461183c565b610bc5565b34801561027b57600080fd5b5061017461028a366004611661565b610d01565b34801561029b57600080fd5b506101dd6102aa366004611a3d565b60009182526003602090815260408084206001600160a01b0393909316845291905290205460ff1690565b3480156102e157600080fd5b506101dd6102f0366004611a3d565b600360209081526000928352604080842090915290825290205460ff1681565b34801561031c57600080fd5b5061014660005481565b34801561033257600080fd5b50610346610341366004611661565b610da1565b60405161011d959493929190611a69565b34801561036357600080fd5b5061036c610e7a565b60405161011d9190611aa4565b34801561038557600080fd5b50610174610394366004611661565b610edc565b610174611099565b3480156103ad57600080fd5b506103b66110d0565b60405161011d9190611ab7565b3480156103cf57600080fd5b506101746103de366004611661565b611239565b600581815481106103f357600080fd5b6000918252602090912001546001600160a01b0316905081565b3360009081526001602052604081205460ff166104455760405162461bcd60e51b815260040161043c90611afb565b60405180910390fd5b6001600160a01b0386166104995760405162461bcd60e51b815260206004820152601b60248201527a496e76616c69642064657374696e6174696f6e206164647265737360281b604482015260640161043c565b6004546040516000906104ba9089908990899086908a908a90602001611b21565b60408051601f1981840301815291815281516020928301206000818152600290935291205490915060ff16156105325760405162461bcd60e51b815260206004820152601d60248201527f5472616e73616374696f6e20616c7265616479207375626d6974746564000000604482015260640161043c565b6040805160c0810182526001600160a01b038a8116825260208083018b81529383018a8152600060608501819052608085018b905260a085018a905260048054600181018255915284517f8a35acfbc15ff81a39ae7d344fd709f28e8600b4aa8c65c6b64bfe7fe36bd19b600690920291820180546001600160a01b0319169190951617845594517f8a35acfbc15ff81a39ae7d344fd709f28e8600b4aa8c65c6b64bfe7fe36bd19c86015551805193949293610616937f8a35acfbc15ff81a39ae7d344fd709f28e8600b4aa8c65c6b64bfe7fe36bd19d01929190910190611573565b50606082015160038201805460ff19169115159190911790556080820151600482015560a082015180516106549160058401916020909101906115f7565b50505060008181526002602052604090819020805460ff19166001179055516001600160a01b0389169033907f22e46f098a7110c7c959a2949ca6e8745e762d26d90822ee21822f8ccde9afee906106b5908b908b9088908c908c90611ba5565b60405180910390a3509695505050505050565b3360009081526001602052604090205460ff166106f75760405162461bcd60e51b815260040161043c90611afb565b6001600160a01b03811660009081526001602052604090205460ff166107555760405162461bcd60e51b81526020600482015260136024820152722737ba10309031bab93932b73a1037bbb732b960691b604482015260640161043c565b6005546001106107a25760405162461bcd60e51b815260206004820152601860248201527721b0b73737ba103932b6b7bb32903630b9ba1037bbb732b960411b604482015260640161043c565b6001600160a01b0381166000908152600160205260408120805460ff191690555b60055481101561089657816001600160a01b0316600582815481106107ea576107ea611be8565b6000918252602090912001546001600160a01b03161415610884576005805461081590600190611c14565b8154811061082557610825611be8565b600091825260209091200154600580546001600160a01b03909216918390811061085157610851611be8565b9060005260206000200160006101000a8154816001600160a01b0302191690836001600160a01b03160217905550610896565b8061088e81611c2b565b9150506107c3565b5060058054806108a8576108a8611c46565b600082815260209020810160001990810180546001600160a01b031916905501905550565b60606004805480602002602001604051908101604052809291908181526020016000905b82821015610a5c5760008481526020908190206040805160c0810182526006860290920180546001600160a01b031683526001810154938301939093526002830180549293929184019161094490611c5c565b80601f016020809104026020016040519081016040528092919081815260200182805461097090611c5c565b80156109bd5780601f10610992576101008083540402835291602001916109bd565b820191906000526020600020905b8154815290600101906020018083116109a057829003601f168201915b505050505081526020016003820160009054906101000a900460ff161515151581526020016004820154815260200160058201805480602002602001604051908101604052809291908181526020018280548015610a4457602002820191906000526020600020905b81546001600160a01b03168152600190910190602001808311610a26575b505050505081525050815260200190600101906108f1565b50505050905090565b60008060606000806060600060048881548110610a8457610a84611be8565b6000918252602090912060069091020180546001820154600383015460048401546002850180549596506001600160a01b039094169492939260ff9092169160058701908490610ad390611c5c565b80601f0160208091040260200160405190810160405280929190818152602001828054610aff90611c5c565b8015610b4c5780601f10610b2157610100808354040283529160200191610b4c565b820191906000526020600020905b815481529060010190602001808311610b2f57829003601f168201915b5050505050935080805480602002602001604051908101604052809291908181526020018280548015610ba857602002820191906000526020600020905b81546001600160a01b03168152600190910190602001808311610b8a575b505050505090509650965096509650965096505091939550919395565b3360009081526001602052604090205460ff16610bf45760405162461bcd60e51b815260040161043c90611afb565b6001600160a01b038116610c425760405162461bcd60e51b8152602060048201526015602482015274496e76616c6964206f776e6572206164647265737360581b604482015260640161043c565b6001600160a01b03811660009081526001602052604090205460ff1615610c9d5760405162461bcd60e51b815260206004820152600f60248201526e223ab83634b1b0ba329037bbb732b960891b604482015260640161043c565b6001600160a01b031660008181526001602081905260408220805460ff1916821790556005805491820181559091527f036b6384b5eca791c62761152d0c79bb0604c104a5fb6f4eb0703f3154bb3db00180546001600160a01b0319169091179055565b3360009081526001602052604090205460ff16610d305760405162461bcd60e51b815260040161043c90611afb565b600081118015610d4257506005548111155b610d9c5760405162461bcd60e51b815260206004820152602560248201527f496e76616c6964206e756d626572206f66207265717569726564207369676e61604482015264747572657360d81b606482015260840161043c565b600055565b60048181548110610db157600080fd5b60009182526020909120600690910201805460018201546002830180546001600160a01b039093169450909291610de790611c5c565b80601f0160208091040260200160405190810160405280929190818152602001828054610e1390611c5c565b8015610e605780601f10610e3557610100808354040283529160200191610e60565b820191906000526020600020905b815481529060010190602001808311610e4357829003601f168201915b505050506003830154600490930154919260ff1691905085565b60606005805480602002602001604051908101604052809291908181526020018280548015610ed257602002820191906000526020600020905b81546001600160a01b03168152600190910190602001808311610eb4575b5050505050905090565b33600090815260016020526040902054819060ff16610f0d5760405162461bcd60e51b815260040161043c90611afb565b6004548110610f2e5760405162461bcd60e51b815260040161043c90611c97565b600060048281548110610f4357610f43611be8565b906000526020600020906006020190508060040154421015610f775760405162461bcd60e51b815260040161043c90611cca565b6000805b6005830154811015610fdc57336001600160a01b0316836005018281548110610fa657610fa6611be8565b6000918252602090912001546001600160a01b03161415610fca5760019150610fdc565b80610fd481611c2b565b915050610f7b565b5080610ffa5760405162461bcd60e51b815260040161043c90611d00565b60006004858154811061100f5761100f611be8565b60009182526020909120600690910201600381015490915060ff16156110475760405162461bcd60e51b815260040161043c90611d30565b6000858152600360209081526040808320338085529252808320805460ff191660011790555187927f5cbe105e36805f7820e291f799d5794ff948af2a5f664e580382defb6339004191a35050505050565b60405134815233907fe1fffcc4923d04b559f4d29a8bfc6cda04eb5b0d3c460751c2402c5c5cc9109c9060200160405180910390a2565b6004546060906000906001600160401b038111156110f0576110f0611696565b604051908082528060200260200182016040528015611119578160200160208202803683370190505b5090506000805b600454811015611196576004818154811061113d5761113d611be8565b600091825260209091206003600690920201015460ff16611184578083838151811061116b5761116b611be8565b60209081029190910101528161118081611c2b565b9250505b8061118e81611c2b565b915050611120565b506000816001600160401b038111156111b1576111b1611696565b6040519080825280602002602001820160405280156111da578160200160208202803683370190505b50905060005b82811015611231578381815181106111fa576111fa611be8565b602002602001015182828151811061121457611214611be8565b60209081029190910101528061122981611c2b565b9150506111e0565b509392505050565b33600090815260016020526040902054819060ff1661126a5760405162461bcd60e51b815260040161043c90611afb565b600454811061128b5760405162461bcd60e51b815260040161043c90611c97565b6000600482815481106112a0576112a0611be8565b9060005260206000209060060201905080600401544210156112d45760405162461bcd60e51b815260040161043c90611cca565b6000805b600583015481101561133957336001600160a01b031683600501828154811061130357611303611be8565b6000918252602090912001546001600160a01b031614156113275760019150611339565b8061133181611c2b565b9150506112d8565b50806113575760405162461bcd60e51b815260040161043c90611d00565b60006004858154811061136c5761136c611be8565b60009182526020909120600690910201600381015490915060ff16156113a45760405162461bcd60e51b815260040161043c90611d30565b6000805b60058301548110156114265760008360050182815481106113cb576113cb611be8565b60009182526020808320909101548a83526003825260408084206001600160a01b039092168085529190925291205490915060ff1615611413578261140f81611c2b565b9350505b508061141e81611c2b565b9150506113a8565b506000548110156114745760405162461bcd60e51b81526020600482015260186024820152774e6f7420656e6f75676820636f6e6669726d6174696f6e7360401b604482015260640161043c565b60038201805460ff191660019081179091558254908301546040516000926001600160a01b031691906114ab906002870190611d66565b60006040518083038185875af1925050503d80600081146114e8576040519150601f19603f3d011682016040523d82523d6000602084013e6114ed565b606091505b505090508061153d5760405162461bcd60e51b815260206004820152601c60248201527b151c985b9cd858dd1a5bdb88195e1958dd5d1a5bdb8819985a5b195960221b604482015260640161043c565b604051879033907f5445f318f4f5fcfb66592e68e0cc5822aa15664039bd5f0ffde24c5a8142b1ac90600090a350505050505050565b82805461157f90611c5c565b90600052602060002090601f0160209004810192826115a157600085556115e7565b82601f106115ba57805160ff19168380011785556115e7565b828001600101855582156115e7579182015b828111156115e75782518255916020019190600101906115cc565b506115f392915061164c565b5090565b8280548282559060005260206000209081019282156115e7579160200282015b828111156115e757825182546001600160a01b0319166001600160a01b03909116178255602090920191600190910190611617565b5b808211156115f3576000815560010161164d565b60006020828403121561167357600080fd5b5035919050565b80356001600160a01b038116811461169157600080fd5b919050565b634e487b7160e01b600052604160045260246000fd5b604051601f8201601f191681016001600160401b03811182821017156116d4576116d4611696565b604052919050565b600082601f8301126116ed57600080fd5b813560206001600160401b0382111561170857611708611696565b8160051b6117178282016116ac565b928352848101820192828101908785111561173157600080fd5b83870192505b84831015611757576117488361167a565b82529183019190830190611737565b979650505050505050565b600080600080600060a0868803121561177a57600080fd5b6117838661167a565b9450602086810135945060408701356001600160401b03808211156117a757600080fd5b818901915089601f8301126117bb57600080fd5b8135818111156117cd576117cd611696565b6117df601f8201601f191685016116ac565b8181528b858386010111156117f357600080fd5b8185850186830137600091810190940152919450606088013593506080880135918083111561182157600080fd5b505061182f888289016116dc565b9150509295509295909350565b60006020828403121561184e57600080fd5b6118578261167a565b9392505050565b60005b83811015611879578181015183820152602001611861565b83811115611888576000848401525b50505050565b600081518084526118a681602086016020860161185e565b601f01601f19169290920160200192915050565b60006020808301818452808551808352604092508286019150828160051b8701018488016000805b8481101561199657898403603f19018652825180516001600160a01b039081168652898201518a8701528882015160c08a880181905291906119268389018261188e565b6060858101511515908a0152608080860151908a015260a094850151898203958a01959095528451808252948d0194879450908d0191505b8084101561198057845183168252938c019360019390930192908c019061195e565b50988b01989650505092880192506001016118e2565b50919998505050505050505050565b600081518084526020808501945080840160005b838110156119de5781516001600160a01b0316875295820195908201906001016119b9565b509495945050505050565b60018060a01b038716815285602082015260c060408201526000611a1060c083018761188e565b851515606084015284608084015282810360a0840152611a3081856119a5565b9998505050505050505050565b60008060408385031215611a5057600080fd5b82359150611a606020840161167a565b90509250929050565b60018060a01b038616815284602082015260a060408201526000611a9060a083018661188e565b931515606083015250608001529392505050565b60208152600061185760208301846119a5565b6020808252825182820181905260009190848201906040850190845b81811015611aef57835183529284019291840191600101611ad3565b50909695505050505050565b6020808252600c908201526b2737ba1030b71037bbb732b960a11b604082015260600190565b606087901b6001600160601b03191681526014810186905284516000906020611b508260348601838b0161185e565b8184019150866034830152856054830152607482019150845181860160005b82811015611b945781516001600160a01b031685529383019390830190600101611b6f565b50929b9a5050505050505050505050565b85815260a060208201526000611bbe60a083018761188e565b8560408401528460608401528281036080840152611bdc81856119a5565b98975050505050505050565b634e487b7160e01b600052603260045260246000fd5b634e487b7160e01b600052601160045260246000fd5b600082821015611c2657611c26611bfe565b500390565b6000600019821415611c3f57611c3f611bfe565b5060010190565b634e487b7160e01b600052603160045260246000fd5b600181811c90821680611c7057607f821691505b60208210811415611c9157634e487b7160e01b600052602260045260246000fd5b50919050565b602080825260199082015278092dcecc2d8d2c840e8e4c2dce6c2c6e8d2dedc40d2dcc8caf603b1b604082015260600190565b6020808252601c908201527b151c985b9cd858dd1a5bdb881b9bdd081e595d081d5b9b1bd8dad95960221b604082015260600190565b6020808252601690820152752737ba1030b71030baba3437b934bd32b2103ab9b2b960511b604082015260600190565b6020808252601c908201527b151c985b9cd858dd1a5bdb88185b1c9958591e48195e1958dd5d195960221b604082015260600190565b600080835481600182811c915080831680611d8257607f831692505b6020808410821415611da257634e487b7160e01b86526022600452602486fd5b818015611db65760018114611dc757611df4565b60ff19861689528489019650611df4565b60008a81526020902060005b86811015611dec5781548b820152908501908301611dd3565b505084890196505b50949897505050505050505056fea26469706673582212201b6b6be8929e1bdf0a46af02f92801075e6cdf5eb87001a60eea4e485dede32a64736f6c63430008090033",
  "linkReferences": {},
  "deployedLinkReferences": {}
}