{
  "_format": "hh-sol-artifact-1",
  "contractName": "MantleMultisig",
  "sourceName": "contracts/MantleMultisig.sol",
  "abi": [
    {
      "inputs": [],
      "stateMutability": "nonpayable",
      "type": "constructor"
    },
    {
      "anonymous": false,
      "inputs": [
        {
          "indexed": true,
          "internalType": "address",
          "name": "sender",
          "type": "address"
        },
        {
          "indexed": true,
          "internalType": "uint256",
          "name": "txIndex",
          "type": "uint256"
        }
      ],
      "name": "ConfirmTransaction",
      "type": "event"
    },
    {
      "anonymous": false,
      "inputs": [
        {
          "indexed": true,
          "internalType": "address",
          "name": "sender",
          "type": "address"
        },
        {
          "indexed": false,
          "internalType": "uint256",
          "name": "amount",
          "type": "uint256"
        }
      ],
      "name": "Deposit",
      "type": "event"
    },
    {
      "anonymous": false,
      "inputs": [
        {
          "indexed": true,
          "internalType": "address",
          "name": "sender",
          "type": "address"
        },
        {
          "indexed": true,
          "internalType": "uint256",
          "name": "txIndex",
          "type": "uint256"
        }
      ],
      "name": "ExecuteTransaction",
      "type": "event"
    },
    {
      "anonymous": false,
      "inputs": [
        {
          "indexed": true,
          "internalType": "address",
          "name": "sender",
          "type": "address"
        },
        {
          "indexed": true,
          "internalType": "address",
          "name": "destination",
          "type": "address"
        },
        {
          "indexed": false,
          "internalType": "uint256",
          "name": "value",
          "type": "uint256"
        },
        {
          "indexed": false,
          "internalType": "bytes",
          "name": "data",
          "type": "bytes"
        },
        {
          "indexed": false,
          "internalType": "uint256",
          "name": "nonce",
          "type": "uint256"
        },
        {
          "indexed": false,
          "internalType": "uint256",
          "name": "timelock",
          "type": "uint256"
        },
        {
          "indexed": false,
          "internalType": "address[]",
          "name": "authorizedUsers",
          "type": "address[]"
        }
      ],
      "name": "SubmitTransaction",
      "type": "event"
    },
    {
      "inputs": [
        {
          "internalType": "address",
          "name": "owner",
          "type": "address"
        }
      ],
      "name": "addOwner",
      "outputs": [],
      "stateMutability": "nonpayable",
      "type": "function"
    },
    {
      "inputs": [
        {
          "internalType": "uint256",
          "name": "txIndex",
          "type": "uint256"
        }
      ],
      "name": "confirmTransaction",
      "outputs": [],
      "stateMutability": "nonpayable",
      "type": "function"
    },
    {
      "inputs": [
        {
          "internalType": "uint256",
          "name": "",
          "type": "uint256"
        },
        {
          "internalType": "address",
          "name": "",
          "type": "address"
        }
      ],
      "name": "confirmed",
      "outputs": [
        {
          "internalType": "bool",
          "name": "",
          "type": "bool"
        }
      ],
      "stateMutability": "view",
      "type": "function"
    },
    {
      "inputs": [],
      "name": "deposit",
      "outputs": [],
      "stateMutability": "payable",
      "type": "function"
    },
    {
      "inputs": [
        {
          "internalType": "uint256",
          "name": "txIndex",
          "type": "uint256"
        }
      ],
      "name": "executeTransaction",
      "outputs": [],
      "stateMutability": "nonpayable",
      "type": "function"
    },
    {
      "inputs": [],
      "name": "getOwners",
      "outputs": [
        {
          "internalType": "address[]",
          "name": "",
          "type": "address[]"
        }
      ],
      "stateMutability": "view",
      "type": "function"
    },
    {
      "inputs": [],
      "name": "getPendingTransactions",
      "outputs": [
        {
          "internalType": "uint256[]",
          "name": "",
          "type": "uint256[]"
        }
      ],
      "stateMutability": "view",
      "type": "function"
    },
    {
      "inputs": [
        {
          "internalType": "uint256",
          "name": "txIndex",
          "type": "uint256"
        }
      ],
      "name": "getTransaction",
      "outputs": [
        {
          "internalType": "address",
          "name": "destination",
          "type": "address"
        },
        {
          "internalType": "uint256",
          "name": "value",
          "type": "uint256"
        },
        {
          "internalType": "bytes",
          "name": "data",
          "type": "bytes"
        },
        {
          "internalType": "bool",
          "name": "executed",
          "type": "bool"
        },
        {
          "internalType": "uint256",
          "name": "timelock",
          "type": "uint256"
        },
        {
          "internalType": "address[]",
          "name": "authorizedUsers",
          "type": "address[]"
        }
      ],
      "stateMutability": "view",
      "type": "function"
    },
    {
      "inputs": [],
      "name": "getTransactionCount",
      "outputs": [
        {
          "internalType": "uint256",
          "name": "count",
          "type": "uint256"
        }
      ],
      "stateMutability": "view",
      "type": "function"
    },
    {
      "inputs": [
        {
          "internalType": "uint256",
          "name": "txIndex",
          "type": "uint256"
        },
        {
          "internalType": "address",
          "name": "owner",
          "type": "address"
        }
      ],
      "name": "isConfirmed",
      "outputs": [
        {
          "internalType": "bool",
          "name": "",
          "type": "bool"
        }
      ],
      "stateMutability": "view",
      "type": "function"
    },
    {
      "inputs": [
        {
          "internalType": "address",
          "name": "",
          "type": "address"
        }
      ],
      "name": "isOwner",
      "outputs": [
        {
          "internalType": "bool",
          "name": "",
          "type": "bool"
        }
      ],
      "stateMutability": "view",
      "type": "function"
    },
    {
      "inputs": [
        {
          "internalType": "uint256",
          "name": "",
          "type": "uint256"
        }
      ],
      "name": "owners",
      "outputs": [
        {
          "internalType": "address",
          "name": "",
          "type": "address"
        }
      ],
      "stateMutability": "view",
      "type": "function"
    },
    {
      "inputs": [
        {
          "internalType": "address",
          "name": "owner",
          "type": "address"
        }
      ],
      "name": "removeOwner",
      "outputs": [],
      "stateMutability": "nonpayable",
      "type": "function"
    },
    {
      "inputs": [],
      "name": "requiredSignatures",
      "outputs": [
        {
          "internalType": "uint256",
          "name": "",
          "type": "uint256"
        }
      ],
      "stateMutability": "view",
      "type": "function"
    },
    {
      "inputs": [
        {
          "internalType": "uint256",
          "name": "_requiredSignatures",
          "type": "uint256"
        }
      ],
      "name": "setRequiredSignatures",
      "outputs": [],
      "stateMutability": "nonpayable",
      "type": "function"
    },
    {
      "inputs": [
        {
          "internalType": "address",
          "name": "destination",
          "type": "address"
        },
        {
          "internalType": "uint256",
          "name": "value",
          "type": "uint256"
        },
        {
          "internalType": "bytes",
          "name": "data",
          "type": "bytes"
        },
        {
          "internalType": "uint256",
          "name": "timelock",
          "type": "uint256"
        },
        {
          "internalType": "address[]",
          "name": "authorizedUsers",
          "type": "address[]"
        }
      ],
      "name": "submitTransaction",
      "outputs": [
        {
          "internalType": "uint256",
          "name": "txIndex",
          "type": "uint256"
        }
      ],
      "stateMutability": "nonpayable",
      "type": "function"
    },
    {
      "inputs": [
        {
          "internalType": "uint256",
          "name": "",
          "type": "uint256"
        }
      ],
      "name": "transactions",
      "outputs": [
        {
          "internalType": "address",
          "name": "destination",
          "type": "address"
        },
        {
          "internalType": "uint256",
          "name": "value",
          "type": "uint256"
        },
        {
          "internalType": "bytes",
          "name": "data",
          "type": "bytes"
        },
        {
          "internalType": "bool",
          "name": "executed",
          "type": "bool"
        },
        {
          "internalType": "uint256",
          "name": "timelock",
          "type": "uint256"
        }
      ],
      "stateMutability": "view",
      "type": "function"
    },
    {
      "inputs": [
        {
          "internalType": "uint256",
          "name": "",
          "type": "uint256"
        }
      ],
      "name": "usedNonces",
      "outputs": [
        {
          "internalType": "bool",
          "name": "",
          "type": "bool"
        }
      ],
      "stateMutability": "view",
      "type": "function"
    }
  ],
  "bytecode": "0x608060405234801561001057600080fd5b506005805460018181019092557f036b6384b5eca791c62761152d0c79bb0604c104a5fb6f4eb0703f3154bb3db00180546001600160a01b031916339081179091556000908152602082905260409020805460ff19169091179055611b888061007a6000396000f3fe6080604052600436106100d95760003560e01c8063025e7c27146100de57806305a07aaf1461011b578063173825d9146101495780632e7700f01461016b5780632f54bf6e1461018057806333ea3dc8146101c05780636717e41c146101f25780637065cb48146102225780637d2b9cc01461024257806380f59a65146102625780638790c1de146102a85780638d068043146102e35780639ace38c2146102f9578063a0e67e2b1461032a578063c01a8c841461034c578063d0e30db01461036c578063d11db83f14610374578063ee22610b14610396575b600080fd5b3480156100ea57600080fd5b506100fe6100f936600461149c565b6103b6565b6040516001600160a01b0390911681526020015b60405180910390f35b34801561012757600080fd5b5061013b61013636600461159d565b6103e0565b604051908152602001610112565b34801561015557600080fd5b50610169610164366004611677565b61069b565b005b34801561017757600080fd5b5060045461013b565b34801561018c57600080fd5b506101b061019b366004611677565b60016020526000908152604090205460ff1681565b6040519015158152602001610112565b3480156101cc57600080fd5b506101e06101db36600461149c565b6108a0565b60405161011296959493929190611739565b3480156101fe57600080fd5b506101b061020d36600461149c565b60026020526000908152604090205460ff1681565b34801561022e57600080fd5b5061016961023d366004611677565b610a00565b34801561024e57600080fd5b5061016961025d36600461149c565b610b3c565b34801561026e57600080fd5b506101b061027d36600461178d565b60009182526003602090815260408084206001600160a01b0393909316845291905290205460ff1690565b3480156102b457600080fd5b506101b06102c336600461178d565b600360209081526000928352604080842090915290825290205460ff1681565b3480156102ef57600080fd5b5061013b60005481565b34801561030557600080fd5b5061031961031436600461149c565b610bdc565b6040516101129594939291906117b9565b34801561033657600080fd5b5061033f610cb5565b60405161011291906117f4565b34801561035857600080fd5b5061016961036736600461149c565b610d17565b610169610ed4565b34801561038057600080fd5b50610389610f0b565b6040516101129190611807565b3480156103a257600080fd5b506101696103b136600461149c565b611074565b600581815481106103c657600080fd5b6000918252602090912001546001600160a01b0316905081565b3360009081526001602052604081205460ff166104185760405162461bcd60e51b815260040161040f9061184b565b60405180910390fd5b6001600160a01b03861661046c5760405162461bcd60e51b815260206004820152601b60248201527a496e76616c69642064657374696e6174696f6e206164647265737360281b604482015260640161040f565b60045460405160009061048d9089908990899086908a908a90602001611871565b60408051601f1981840301815291815281516020928301206000818152600290935291205490915060ff16156105055760405162461bcd60e51b815260206004820152601d60248201527f5472616e73616374696f6e20616c7265616479207375626d6974746564000000604482015260640161040f565b6040805160c0810182526001600160a01b038a8116825260208083018b81529383018a8152600060608501819052608085018b905260a085018a905260048054600181018255915284517f8a35acfbc15ff81a39ae7d344fd709f28e8600b4aa8c65c6b64bfe7fe36bd19b600690920291820180546001600160a01b0319169190951617845594517f8a35acfbc15ff81a39ae7d344fd709f28e8600b4aa8c65c6b64bfe7fe36bd19c860155518051939492936105e9937f8a35acfbc15ff81a39ae7d344fd709f28e8600b4aa8c65c6b64bfe7fe36bd19d019291909101906113ae565b50606082015160038201805460ff19169115159190911790556080820151600482015560a08201518051610627916005840191602090910190611432565b50505060008181526002602052604090819020805460ff19166001179055516001600160a01b0389169033907f22e46f098a7110c7c959a2949ca6e8745e762d26d90822ee21822f8ccde9afee90610688908b908b9088908c908c906118f5565b60405180910390a3509695505050505050565b3360009081526001602052604090205460ff166106ca5760405162461bcd60e51b815260040161040f9061184b565b6001600160a01b03811660009081526001602052604090205460ff166107285760405162461bcd60e51b81526020600482015260136024820152722737ba10309031bab93932b73a1037bbb732b960691b604482015260640161040f565b6005546001106107755760405162461bcd60e51b815260206004820152601860248201527721b0b73737ba103932b6b7bb32903630b9ba1037bbb732b960411b604482015260640161040f565b6001600160a01b0381166000908152600160205260408120805460ff191690555b60055481101561086957816001600160a01b0316600582815481106107bd576107bd611938565b6000918252602090912001546001600160a01b0316141561085757600580546107e890600190611964565b815481106107f8576107f8611938565b600091825260209091200154600580546001600160a01b03909216918390811061082457610824611938565b9060005260206000200160006101000a8154816001600160a01b0302191690836001600160a01b03160217905550610869565b806108618161197b565b915050610796565b50600580548061087b5761087b611996565b600082815260209020810160001990810180546001600160a01b031916905501905550565b600080606060008060606000600488815481106108bf576108bf611938565b6000918252602090912060069091020180546001820154600383015460048401546002850180549596506001600160a01b039094169492939260ff909216916005870190849061090e906119ac565b80601f016020809104026020016040519081016040528092919081815260200182805461093a906119ac565b80156109875780601f1061095c57610100808354040283529160200191610987565b820191906000526020600020905b81548152906001019060200180831161096a57829003601f168201915b50505050509350808054806020026020016040519081016040528092919081815260200182805480156109e357602002820191906000526020600020905b81546001600160a01b031681526001909101906020018083116109c5575b505050505090509650965096509650965096505091939550919395565b3360009081526001602052604090205460ff16610a2f5760405162461bcd60e51b815260040161040f9061184b565b6001600160a01b038116610a7d5760405162461bcd60e51b8152602060048201526015602482015274496e76616c6964206f776e6572206164647265737360581b604482015260640161040f565b6001600160a01b03811660009081526001602052604090205460ff1615610ad85760405162461bcd60e51b815260206004820152600f60248201526e223ab83634b1b0ba329037bbb732b960891b604482015260640161040f565b6001600160a01b031660008181526001602081905260408220805460ff1916821790556005805491820181559091527f036b6384b5eca791c62761152d0c79bb0604c104a5fb6f4eb0703f3154bb3db00180546001600160a01b0319169091179055565b3360009081526001602052604090205460ff16610b6b5760405162461bcd60e51b815260040161040f9061184b565b600081118015610b7d57506005548111155b610bd75760405162461bcd60e51b815260206004820152602560248201527f496e76616c6964206e756d626572206f66207265717569726564207369676e61604482015264747572657360d81b606482015260840161040f565b600055565b60048181548110610bec57600080fd5b60009182526020909120600690910201805460018201546002830180546001600160a01b039093169450909291610c22906119ac565b80601f0160208091040260200160405190810160405280929190818152602001828054610c4e906119ac565b8015610c9b5780601f10610c7057610100808354040283529160200191610c9b565b820191906000526020600020905b815481529060010190602001808311610c7e57829003601f168201915b505050506003830154600490930154919260ff1691905085565b60606005805480602002602001604051908101604052809291908181526020018280548015610d0d57602002820191906000526020600020905b81546001600160a01b03168152600190910190602001808311610cef575b5050505050905090565b33600090815260016020526040902054819060ff16610d485760405162461bcd60e51b815260040161040f9061184b565b6004548110610d695760405162461bcd60e51b815260040161040f906119e7565b600060048281548110610d7e57610d7e611938565b906000526020600020906006020190508060040154421015610db25760405162461bcd60e51b815260040161040f90611a1a565b6000805b6005830154811015610e1757336001600160a01b0316836005018281548110610de157610de1611938565b6000918252602090912001546001600160a01b03161415610e055760019150610e17565b80610e0f8161197b565b915050610db6565b5080610e355760405162461bcd60e51b815260040161040f90611a50565b600060048581548110610e4a57610e4a611938565b60009182526020909120600690910201600381015490915060ff1615610e825760405162461bcd60e51b815260040161040f90611a80565b6000858152600360209081526040808320338085529252808320805460ff191660011790555187927f5cbe105e36805f7820e291f799d5794ff948af2a5f664e580382defb6339004191a35050505050565b60405134815233907fe1fffcc4923d04b559f4d29a8bfc6cda04eb5b0d3c460751c2402c5c5cc9109c9060200160405180910390a2565b6004546060906000906001600160401b03811115610f2b57610f2b6114d1565b604051908082528060200260200182016040528015610f54578160200160208202803683370190505b5090506000805b600454811015610fd15760048181548110610f7857610f78611938565b600091825260209091206003600690920201015460ff16610fbf5780838381518110610fa657610fa6611938565b602090810291909101015281610fbb8161197b565b9250505b80610fc98161197b565b915050610f5b565b506000816001600160401b03811115610fec57610fec6114d1565b604051908082528060200260200182016040528015611015578160200160208202803683370190505b50905060005b8281101561106c5783818151811061103557611035611938565b602002602001015182828151811061104f5761104f611938565b6020908102919091010152806110648161197b565b91505061101b565b509392505050565b33600090815260016020526040902054819060ff166110a55760405162461bcd60e51b815260040161040f9061184b565b60045481106110c65760405162461bcd60e51b815260040161040f906119e7565b6000600482815481106110db576110db611938565b90600052602060002090600602019050806004015442101561110f5760405162461bcd60e51b815260040161040f90611a1a565b6000805b600583015481101561117457336001600160a01b031683600501828154811061113e5761113e611938565b6000918252602090912001546001600160a01b031614156111625760019150611174565b8061116c8161197b565b915050611113565b50806111925760405162461bcd60e51b815260040161040f90611a50565b6000600485815481106111a7576111a7611938565b60009182526020909120600690910201600381015490915060ff16156111df5760405162461bcd60e51b815260040161040f90611a80565b6000805b600583015481101561126157600083600501828154811061120657611206611938565b60009182526020808320909101548a83526003825260408084206001600160a01b039092168085529190925291205490915060ff161561124e578261124a8161197b565b9350505b50806112598161197b565b9150506111e3565b506000548110156112af5760405162461bcd60e51b81526020600482015260186024820152774e6f7420656e6f75676820636f6e6669726d6174696f6e7360401b604482015260640161040f565b60038201805460ff191660019081179091558254908301546040516000926001600160a01b031691906112e6906002870190611ab6565b60006040518083038185875af1925050503d8060008114611323576040519150601f19603f3d011682016040523d82523d6000602084013e611328565b606091505b50509050806113785760405162461bcd60e51b815260206004820152601c60248201527b151c985b9cd858dd1a5bdb88195e1958dd5d1a5bdb8819985a5b195960221b604482015260640161040f565b604051879033907f5445f318f4f5fcfb66592e68e0cc5822aa15664039bd5f0ffde24c5a8142b1ac90600090a350505050505050565b8280546113ba906119ac565b90600052602060002090601f0160209004810192826113dc5760008555611422565b82601f106113f557805160ff1916838001178555611422565b82800160010185558215611422579182015b82811115611422578251825591602001919060010190611407565b5061142e929150611487565b5090565b828054828255906000526020600020908101928215611422579160200282015b8281111561142257825182546001600160a01b0319166001600160a01b03909116178255602090920191600190910190611452565b5b8082111561142e5760008155600101611488565b6000602082840312156114ae57600080fd5b5035919050565b80356001600160a01b03811681146114cc57600080fd5b919050565b634e487b7160e01b600052604160045260246000fd5b604051601f8201601f191681016001600160401b038111828210171561150f5761150f6114d1565b604052919050565b600082601f83011261152857600080fd5b813560206001600160401b03821115611543576115436114d1565b8160051b6115528282016114e7565b928352848101820192828101908785111561156c57600080fd5b83870192505b8483101561159257611583836114b5565b82529183019190830190611572565b979650505050505050565b600080600080600060a086880312156115b557600080fd5b6115be866114b5565b9450602086810135945060408701356001600160401b03808211156115e257600080fd5b818901915089601f8301126115f657600080fd5b813581811115611608576116086114d1565b61161a601f8201601f191685016114e7565b8181528b8583860101111561162e57600080fd5b8185850186830137600091810190940152919450606088013593506080880135918083111561165c57600080fd5b505061166a88828901611517565b9150509295509295909350565b60006020828403121561168957600080fd5b611692826114b5565b9392505050565b60005b838110156116b457818101518382015260200161169c565b838111156116c3576000848401525b50505050565b600081518084526116e1816020860160208601611699565b601f01601f19169290920160200192915050565b600081518084526020808501945080840160005b8381101561172e5781516001600160a01b031687529582019590820190600101611709565b509495945050505050565b60018060a01b038716815285602082015260c06040820152600061176060c08301876116c9565b851515606084015284608084015282810360a084015261178081856116f5565b9998505050505050505050565b600080604083850312156117a057600080fd5b823591506117b0602084016114b5565b90509250929050565b60018060a01b038616815284602082015260a0604082015260006117e060a08301866116c9565b931515606083015250608001529392505050565b60208152600061169260208301846116f5565b6020808252825182820181905260009190848201906040850190845b8181101561183f57835183529284019291840191600101611823565b50909695505050505050565b6020808252600c908201526b2737ba1030b71037bbb732b960a11b604082015260600190565b606087901b6001600160601b031916815260148101869052845160009060206118a08260348601838b01611699565b8184019150866034830152856054830152607482019150845181860160005b828110156118e45781516001600160a01b0316855293830193908301906001016118bf565b50929b9a5050505050505050505050565b85815260a06020820152600061190e60a08301876116c9565b856040840152846060840152828103608084015261192c81856116f5565b98975050505050505050565b634e487b7160e01b600052603260045260246000fd5b634e487b7160e01b600052601160045260246000fd5b6000828210156119765761197661194e565b500390565b600060001982141561198f5761198f61194e565b5060010190565b634e487b7160e01b600052603160045260246000fd5b600181811c908216806119c057607f821691505b602082108114156119e157634e487b7160e01b600052602260045260246000fd5b50919050565b602080825260199082015278092dcecc2d8d2c840e8e4c2dce6c2c6e8d2dedc40d2dcc8caf603b1b604082015260600190565b6020808252601c908201527b151c985b9cd858dd1a5bdb881b9bdd081e595d081d5b9b1bd8dad95960221b604082015260600190565b6020808252601690820152752737ba1030b71030baba3437b934bd32b2103ab9b2b960511b604082015260600190565b6020808252601c908201527b151c985b9cd858dd1a5bdb88185b1c9958591e48195e1958dd5d195960221b604082015260600190565b600080835481600182811c915080831680611ad257607f831692505b6020808410821415611af257634e487b7160e01b86526022600452602486fd5b818015611b065760018114611b1757611b44565b60ff19861689528489019650611b44565b60008a81526020902060005b86811015611b3c5781548b820152908501908301611b23565b505084890196505b50949897505050505050505056fea26469706673582212202abe5fc69873ad1daad451b70e2348a90c2fd12d709af3c8677d047df3b7b67164736f6c63430008090033",
  "linkReferences": {},
  "deployedLinkReferences": {}
}